{
  "contractName": "AidTrace",
  "abi": [
    {
      "anonymous": false,
      "inputs": [
        {
          "indexed": true,
          "internalType": "uint256",
          "name": "projectId",
          "type": "uint256"
        },
        {
          "indexed": false,
          "internalType": "address",
          "name": "officer",
          "type": "address"
        }
      ],
      "name": "FieldOfficerConfirmed",
      "type": "event"
    },
    {
      "anonymous": false,
      "inputs": [
        {
          "indexed": true,
          "internalType": "uint256",
          "name": "projectId",
          "type": "uint256"
        },
        {
          "indexed": false,
          "internalType": "uint256",
          "name": "fundingId",
          "type": "uint256"
        },
        {
          "indexed": false,
          "internalType": "string",
          "name": "ngoSignature",
          "type": "string"
        }
      ],
      "name": "FundingConfirmed",
      "type": "event"
    },
    {
      "anonymous": false,
      "inputs": [
        {
          "indexed": true,
          "internalType": "uint256",
          "name": "projectId",
          "type": "uint256"
        },
        {
          "indexed": false,
          "internalType": "address",
          "name": "donor",
          "type": "address"
        },
        {
          "indexed": false,
          "internalType": "address",
          "name": "ngo",
          "type": "address"
        },
        {
          "indexed": false,
          "internalType": "uint256",
          "name": "amount",
          "type": "uint256"
        }
      ],
      "name": "FundingRecorded",
      "type": "event"
    },
    {
      "anonymous": false,
      "inputs": [
        {
          "indexed": true,
          "internalType": "uint256",
          "name": "ngoId",
          "type": "uint256"
        },
        {
          "indexed": false,
          "internalType": "address",
          "name": "wallet",
          "type": "address"
        },
        {
          "indexed": false,
          "internalType": "string",
          "name": "name",
          "type": "string"
        }
      ],
      "name": "NGOLinked",
      "type": "event"
    },
    {
      "anonymous": false,
      "inputs": [
        {
          "indexed": true,
          "internalType": "uint256",
          "name": "projectId",
          "type": "uint256"
        },
        {
          "indexed": false,
          "internalType": "string",
          "name": "title",
          "type": "string"
        },
        {
          "indexed": false,
          "internalType": "address",
          "name": "ngoWallet",
          "type": "address"
        }
      ],
      "name": "ProjectCreated",
      "type": "event"
    },
    {
      "anonymous": false,
      "inputs": [
        {
          "indexed": true,
          "internalType": "uint256",
          "name": "requestId",
          "type": "uint256"
        },
        {
          "indexed": false,
          "internalType": "uint256",
          "name": "projectId",
          "type": "uint256"
        },
        {
          "indexed": false,
          "internalType": "address",
          "name": "ngo",
          "type": "address"
        }
      ],
      "name": "QuoteRequestCreated",
      "type": "event"
    },
    {
      "anonymous": false,
      "inputs": [
        {
          "indexed": true,
          "internalType": "uint256",
          "name": "selectionId",
          "type": "uint256"
        },
        {
          "indexed": false,
          "internalType": "uint256",
          "name": "quoteId",
          "type": "uint256"
        },
        {
          "indexed": false,
          "internalType": "address",
          "name": "ngo",
          "type": "address"
        },
        {
          "indexed": false,
          "internalType": "address",
          "name": "supplier",
          "type": "address"
        }
      ],
      "name": "QuoteSelected",
      "type": "event"
    },
    {
      "anonymous": false,
      "inputs": [
        {
          "indexed": true,
          "internalType": "uint256",
          "name": "projectId",
          "type": "uint256"
        },
        {
          "indexed": false,
          "internalType": "address",
          "name": "supplier",
          "type": "address"
        }
      ],
      "name": "SupplierConfirmed",
      "type": "event"
    },
    {
      "anonymous": false,
      "inputs": [
        {
          "indexed": true,
          "internalType": "uint256",
          "name": "quoteId",
          "type": "uint256"
        },
        {
          "indexed": false,
          "internalType": "uint256",
          "name": "requestId",
          "type": "uint256"
        },
        {
          "indexed": false,
          "internalType": "address",
          "name": "supplier",
          "type": "address"
        },
        {
          "indexed": false,
          "internalType": "uint256",
          "name": "amount",
          "type": "uint256"
        }
      ],
      "name": "SupplierQuoteSubmitted",
      "type": "event"
    },
    {
      "inputs": [
        {
          "internalType": "bytes32",
          "name": "",
          "type": "bytes32"
        }
      ],
      "name": "fieldOfficerConfirmations",
      "outputs": [
        {
          "internalType": "uint256",
          "name": "projectId",
          "type": "uint256"
        },
        {
          "internalType": "string",
          "name": "projectTitle",
          "type": "string"
        },
        {
          "internalType": "string",
          "name": "projectLocation",
          "type": "string"
        },
        {
          "internalType": "address",
          "name": "officerAddress",
          "type": "address"
        },
        {
          "internalType": "string",
          "name": "signature",
          "type": "string"
        },
        {
          "internalType": "uint256",
          "name": "timestamp",
          "type": "uint256"
        }
      ],
      "stateMutability": "view",
      "type": "function",
      "constant": true
    },
    {
      "inputs": [
        {
          "internalType": "bytes32",
          "name": "",
          "type": "bytes32"
        }
      ],
      "name": "fundingConfirmations",
      "outputs": [
        {
          "internalType": "uint256",
          "name": "projectId",
          "type": "uint256"
        },
        {
          "internalType": "uint256",
          "name": "fundingId",
          "type": "uint256"
        },
        {
          "internalType": "string",
          "name": "ngoSignature",
          "type": "string"
        },
        {
          "internalType": "string",
          "name": "donorSignature",
          "type": "string"
        },
        {
          "internalType": "uint256",
          "name": "timestamp",
          "type": "uint256"
        }
      ],
      "stateMutability": "view",
      "type": "function",
      "constant": true
    },
    {
      "inputs": [
        {
          "internalType": "bytes32",
          "name": "",
          "type": "bytes32"
        }
      ],
      "name": "fundings",
      "outputs": [
        {
          "internalType": "uint256",
          "name": "projectId",
          "type": "uint256"
        },
        {
          "internalType": "address",
          "name": "donorWallet",
          "type": "address"
        },
        {
          "internalType": "address",
          "name": "ngoWallet",
          "type": "address"
        },
        {
          "internalType": "uint256",
          "name": "amount",
          "type": "uint256"
        },
        {
          "internalType": "uint256",
          "name": "timestamp",
          "type": "uint256"
        }
      ],
      "stateMutability": "view",
      "type": "function",
      "constant": true
    },
    {
      "inputs": [
        {
          "internalType": "uint256",
          "name": "",
          "type": "uint256"
        }
      ],
      "name": "ngos",
      "outputs": [
        {
          "internalType": "uint256",
          "name": "id",
          "type": "uint256"
        },
        {
          "internalType": "address",
          "name": "wallet",
          "type": "address"
        },
        {
          "internalType": "string",
          "name": "name",
          "type": "string"
        },
        {
          "internalType": "string",
          "name": "licenseNumber",
          "type": "string"
        },
        {
          "internalType": "bool",
          "name": "isRegistered",
          "type": "bool"
        }
      ],
      "stateMutability": "view",
      "type": "function",
      "constant": true
    },
    {
      "inputs": [
        {
          "internalType": "uint256",
          "name": "",
          "type": "uint256"
        }
      ],
      "name": "projects",
      "outputs": [
        {
          "internalType": "uint256",
          "name": "id",
          "type": "uint256"
        },
        {
          "internalType": "string",
          "name": "title",
          "type": "string"
        },
        {
          "internalType": "string",
          "name": "description",
          "type": "string"
        },
        {
          "internalType": "string",
          "name": "location",
          "type": "string"
        },
        {
          "internalType": "string",
          "name": "items",
          "type": "string"
        },
        {
          "internalType": "uint256",
          "name": "fundingGoal",
          "type": "uint256"
        },
        {
          "internalType": "address",
          "name": "ngoWallet",
          "type": "address"
        },
        {
          "internalType": "uint256",
          "name": "timestamp",
          "type": "uint256"
        }
      ],
      "stateMutability": "view",
      "type": "function",
      "constant": true
    },
    {
      "inputs": [],
      "name": "quoteRequestCounter",
      "outputs": [
        {
          "internalType": "uint256",
          "name": "",
          "type": "uint256"
        }
      ],
      "stateMutability": "view",
      "type": "function",
      "constant": true
    },
    {
      "inputs": [
        {
          "internalType": "uint256",
          "name": "",
          "type": "uint256"
        }
      ],
      "name": "quoteRequests",
      "outputs": [
        {
          "internalType": "uint256",
          "name": "projectId",
          "type": "uint256"
        },
        {
          "internalType": "string",
          "name": "projectTitle",
          "type": "string"
        },
        {
          "internalType": "string",
          "name": "location",
          "type": "string"
        },
        {
          "internalType": "string",
          "name": "items",
          "type": "string"
        },
        {
          "internalType": "string",
          "name": "deliveryDate",
          "type": "string"
        },
        {
          "internalType": "address",
          "name": "ngoWallet",
          "type": "address"
        },
        {
          "internalType": "uint256",
          "name": "timestamp",
          "type": "uint256"
        }
      ],
      "stateMutability": "view",
      "type": "function",
      "constant": true
    },
    {
      "inputs": [],
      "name": "quoteSelectionCounter",
      "outputs": [
        {
          "internalType": "uint256",
          "name": "",
          "type": "uint256"
        }
      ],
      "stateMutability": "view",
      "type": "function",
      "constant": true
    },
    {
      "inputs": [
        {
          "internalType": "uint256",
          "name": "",
          "type": "uint256"
        }
      ],
      "name": "quoteSelections",
      "outputs": [
        {
          "internalType": "uint256",
          "name": "quoteId",
          "type": "uint256"
        },
        {
          "internalType": "uint256",
          "name": "projectId",
          "type": "uint256"
        },
        {
          "internalType": "address",
          "name": "ngoWallet",
          "type": "address"
        },
        {
          "internalType": "address",
          "name": "selectedSupplier",
          "type": "address"
        },
        {
          "internalType": "uint256",
          "name": "selectedAmount",
          "type": "uint256"
        },
        {
          "internalType": "string",
          "name": "ngoSignature",
          "type": "string"
        },
        {
          "internalType": "uint256",
          "name": "timestamp",
          "type": "uint256"
        }
      ],
      "stateMutability": "view",
      "type": "function",
      "constant": true
    },
    {
      "inputs": [
        {
          "internalType": "bytes32",
          "name": "",
          "type": "bytes32"
        }
      ],
      "name": "supplierConfirmations",
      "outputs": [
        {
          "internalType": "uint256",
          "name": "projectId",
          "type": "uint256"
        },
        {
          "internalType": "string",
          "name": "projectTitle",
          "type": "string"
        },
        {
          "internalType": "string",
          "name": "deliveryLocation",
          "type": "string"
        },
        {
          "internalType": "address",
          "name": "supplierAddress",
          "type": "address"
        },
        {
          "internalType": "string",
          "name": "signature",
          "type": "string"
        },
        {
          "internalType": "uint256",
          "name": "timestamp",
          "type": "uint256"
        }
      ],
      "stateMutability": "view",
      "type": "function",
      "constant": true
    },
    {
      "inputs": [],
      "name": "supplierQuoteCounter",
      "outputs": [
        {
          "internalType": "uint256",
          "name": "",
          "type": "uint256"
        }
      ],
      "stateMutability": "view",
      "type": "function",
      "constant": true
    },
    {
      "inputs": [
        {
          "internalType": "uint256",
          "name": "",
          "type": "uint256"
        }
      ],
      "name": "supplierQuotes",
      "outputs": [
        {
          "internalType": "uint256",
          "name": "quoteRequestId",
          "type": "uint256"
        },
        {
          "internalType": "uint256",
          "name": "projectId",
          "type": "uint256"
        },
        {
          "internalType": "address",
          "name": "supplierAddress",
          "type": "address"
        },
        {
          "internalType": "uint256",
          "name": "quotedAmount",
          "type": "uint256"
        },
        {
          "internalType": "string",
          "name": "deliveryTerms",
          "type": "string"
        },
        {
          "internalType": "string",
          "name": "signature",
          "type": "string"
        },
        {
          "internalType": "uint256",
          "name": "timestamp",
          "type": "uint256"
        }
      ],
      "stateMutability": "view",
      "type": "function",
      "constant": true
    },
    {
      "inputs": [
        {
          "internalType": "uint256",
          "name": "_ngoId",
          "type": "uint256"
        },
        {
          "internalType": "address",
          "name": "_wallet",
          "type": "address"
        },
        {
          "internalType": "string",
          "name": "_name",
          "type": "string"
        },
        {
          "internalType": "string",
          "name": "_licenseNumber",
          "type": "string"
        }
      ],
      "name": "linkNGOWallet",
      "outputs": [],
      "stateMutability": "nonpayable",
      "type": "function"
    },
    {
      "inputs": [
        {
          "internalType": "uint256",
          "name": "_projectId",
          "type": "uint256"
        },
        {
          "internalType": "string",
          "name": "_title",
          "type": "string"
        },
        {
          "internalType": "string",
          "name": "_description",
          "type": "string"
        },
        {
          "internalType": "string",
          "name": "_location",
          "type": "string"
        },
        {
          "internalType": "string",
          "name": "_items",
          "type": "string"
        },
        {
          "internalType": "uint256",
          "name": "_fundingGoal",
          "type": "uint256"
        }
      ],
      "name": "createProject",
      "outputs": [],
      "stateMutability": "nonpayable",
      "type": "function"
    },
    {
      "inputs": [
        {
          "internalType": "uint256",
          "name": "_projectId",
          "type": "uint256"
        },
        {
          "internalType": "address",
          "name": "_donorWallet",
          "type": "address"
        },
        {
          "internalType": "address",
          "name": "_ngoWallet",
          "type": "address"
        },
        {
          "internalType": "uint256",
          "name": "_amount",
          "type": "uint256"
        }
      ],
      "name": "recordFunding",
      "outputs": [],
      "stateMutability": "nonpayable",
      "type": "function"
    },
    {
      "inputs": [
        {
          "internalType": "uint256",
          "name": "_projectId",
          "type": "uint256"
        },
        {
          "internalType": "uint256",
          "name": "_fundingId",
          "type": "uint256"
        },
        {
          "internalType": "string",
          "name": "_ngoSignature",
          "type": "string"
        },
        {
          "internalType": "string",
          "name": "_donorSignature",
          "type": "string"
        }
      ],
      "name": "confirmFunding",
      "outputs": [],
      "stateMutability": "nonpayable",
      "type": "function"
    },
    {
      "inputs": [
        {
          "internalType": "uint256",
          "name": "_projectId",
          "type": "uint256"
        },
        {
          "internalType": "string",
          "name": "_projectTitle",
          "type": "string"
        },
        {
          "internalType": "string",
          "name": "_location",
          "type": "string"
        },
        {
          "internalType": "string",
          "name": "_items",
          "type": "string"
        },
        {
          "internalType": "string",
          "name": "_deliveryDate",
          "type": "string"
        }
      ],
      "name": "createQuoteRequest",
      "outputs": [],
      "stateMutability": "nonpayable",
      "type": "function"
    },
    {
      "inputs": [
        {
          "internalType": "uint256",
          "name": "_quoteRequestId",
          "type": "uint256"
        },
        {
          "internalType": "uint256",
          "name": "_projectId",
          "type": "uint256"
        },
        {
          "internalType": "uint256",
          "name": "_quotedAmount",
          "type": "uint256"
        },
        {
          "internalType": "string",
          "name": "_deliveryTerms",
          "type": "string"
        },
        {
          "internalType": "string",
          "name": "_signature",
          "type": "string"
        }
      ],
      "name": "submitSupplierQuote",
      "outputs": [],
      "stateMutability": "nonpayable",
      "type": "function"
    },
    {
      "inputs": [
        {
          "internalType": "uint256",
          "name": "_quoteId",
          "type": "uint256"
        },
        {
          "internalType": "uint256",
          "name": "_projectId",
          "type": "uint256"
        },
        {
          "internalType": "address",
          "name": "_selectedSupplier",
          "type": "address"
        },
        {
          "internalType": "uint256",
          "name": "_selectedAmount",
          "type": "uint256"
        },
        {
          "internalType": "string",
          "name": "_ngoSignature",
          "type": "string"
        }
      ],
      "name": "selectQuote",
      "outputs": [],
      "stateMutability": "nonpayable",
      "type": "function"
    },
    {
      "inputs": [
        {
          "internalType": "uint256",
          "name": "_projectId",
          "type": "uint256"
        },
        {
          "internalType": "string",
          "name": "_projectTitle",
          "type": "string"
        },
        {
          "internalType": "string",
          "name": "_deliveryLocation",
          "type": "string"
        },
        {
          "internalType": "address",
          "name": "_supplierAddress",
          "type": "address"
        },
        {
          "internalType": "string",
          "name": "_signature",
          "type": "string"
        }
      ],
      "name": "recordSupplierConfirmation",
      "outputs": [],
      "stateMutability": "nonpayable",
      "type": "function"
    },
    {
      "inputs": [
        {
          "internalType": "uint256",
          "name": "_projectId",
          "type": "uint256"
        },
        {
          "internalType": "string",
          "name": "_projectTitle",
          "type": "string"
        },
        {
          "internalType": "string",
          "name": "_projectLocation",
          "type": "string"
        },
        {
          "internalType": "address",
          "name": "_officerAddress",
          "type": "address"
        },
        {
          "internalType": "string",
          "name": "_signature",
          "type": "string"
        }
      ],
      "name": "recordFieldOfficerConfirmation",
      "outputs": [],
      "stateMutability": "nonpayable",
      "type": "function"
    }
  ],
  "bytecode": "0x608060405234801561001057600080fd5b506121a4806100206000396000f3fe608060405234801561001057600080fd5b50600436106101375760003560e01c80639a73c112116100b8578063cd03e5fc1161007c578063cd03e5fc1461033e578063cfe15d1714610351578063e48ae6b114610368578063f1cbaf3d14610371578063f7a63a181461037a578063fa8266f21461038d57600080fd5b80639a73c11214610275578063bacbea07146102f2578063c07aa57b14610305578063c713d0f814610318578063c8f6d8dd1461032b57600080fd5b806335d4655c116100ff57806335d4655c146101e057806342987eb0146101f35780634a0efe97146102175780634e1de1e21461023d5780635e7d6a831461025057600080fd5b8063053c7e081461013c578063107046bd1461016b5780631bf4cfd3146101925780632ae762af146101a75780632ec0c987146101ba575b600080fd5b61014f61014a36600461184f565b6103b1565b60405161016297969594939291906118ae565b60405180910390f35b61017e61017936600461184f565b610508565b604051610162989796959493929190611908565b6101a56101a0366004611a2b565b610775565b005b6101a56101b5366004611afe565b61089c565b6101cd6101c836600461184f565b6109dd565b6040516101629796959493929190611b71565b6101a56101ee366004611be4565b610c42565b61020661020136600461184f565b610d2c565b604051610162959493929190611c62565b61022a61022536600461184f565b610e6c565b6040516101629796959493929190611ca6565b6101a561024b366004611cfa565b610eb6565b61026361025e36600461184f565b610fc5565b60405161016296959493929190611d3e565b6102be61028336600461184f565b60036020819052600091825260409091208054600182015460028301549383015460049093015491936001600160a01b039182169391169185565b604080519586526001600160a01b03948516602087015292909316918401919091526060830152608082015260a001610162565b61026361030036600461184f565b6111a1565b6101a5610313366004611afe565b6111c3565b6101a5610326366004611da0565b6112f8565b6101a5610339366004611de5565b611400565b6101a561034c366004611e21565b6114dd565b61035a600b5481565b604051908152602001610162565b61035a60095481565b61035a600a5481565b6101a5610388366004611ee0565b6115ef565b6103a061039b36600461184f565b611703565b604051610162959493929190611f3e565b60056020526000908152604090208054600182015460028301546003840154600485018054949593946001600160a01b039093169391926103f190611f8f565b80601f016020809104026020016040519081016040528092919081815260200182805461041d90611f8f565b801561046a5780601f1061043f5761010080835404028352916020019161046a565b820191906000526020600020905b81548152906001019060200180831161044d57829003601f168201915b50505050509080600501805461047f90611f8f565b80601f01602080910402602001604051908101604052809291908181526020018280546104ab90611f8f565b80156104f85780601f106104cd576101008083540402835291602001916104f8565b820191906000526020600020905b8154815290600101906020018083116104db57829003601f168201915b5050505050908060060154905087565b6002602052600090815260409020805460018201805491929161052a90611f8f565b80601f016020809104026020016040519081016040528092919081815260200182805461055690611f8f565b80156105a35780601f10610578576101008083540402835291602001916105a3565b820191906000526020600020905b81548152906001019060200180831161058657829003601f168201915b5050505050908060020180546105b890611f8f565b80601f01602080910402602001604051908101604052809291908181526020018280546105e490611f8f565b80156106315780601f1061060657610100808354040283529160200191610631565b820191906000526020600020905b81548152906001019060200180831161061457829003601f168201915b50505050509080600301805461064690611f8f565b80601f016020809104026020016040519081016040528092919081815260200182805461067290611f8f565b80156106bf5780601f10610694576101008083540402835291602001916106bf565b820191906000526020600020905b8154815290600101906020018083116106a257829003601f168201915b5050505050908060040180546106d490611f8f565b80601f016020809104026020016040519081016040528092919081815260200182805461070090611f8f565b801561074d5780601f106107225761010080835404028352916020019161074d565b820191906000526020600020905b81548152906001019060200180831161073057829003601f168201915b5050505060058301546006840154600790940154929390926001600160a01b03909116915088565b6009805490600061078583611fc9565b90915550506040805160e081018252868152602080820187815282840187905260608301869052608083018590523360a08401524260c08401526009546000908152600490925292902081518155915190919060018201906107e7908261203f565b50604082015160028201906107fc908261203f565b5060608201516003820190610811908261203f565b5060808201516004820190610826908261203f565b5060a08201516005820180546001600160a01b0319166001600160a01b0390921691909117905560c090910151600690910155600954604080518781523360208201527f88d308f7bf5f8389e19e236b59381a5c539365858e4efbd27c44a3b82f178cb591015b60405180910390a25050505050565b60408051602081018790526001600160601b0319606085901b169181019190915242605482015260009060740160408051601f19818403018152828252805160209182012060c0840183528984528382018981528484018990526001600160a01b0388166060860152608085018790524260a086015260008281526007909352929091208351815591519093506001820190610938908261203f565b506040820151600282019061094d908261203f565b5060608201516003820180546001600160a01b0319166001600160a01b0390921691909117905560808201516004820190610988908261203f565b5060a091909101516005909101556040516001600160a01b038416815286907fc9d0a12a043bb5752e33139e05fc114c732e4ebc8499a3e443035934b997e2ff906020015b60405180910390a2505050505050565b600460205260009081526040902080546001820180549192916109ff90611f8f565b80601f0160208091040260200160405190810160405280929190818152602001828054610a2b90611f8f565b8015610a785780601f10610a4d57610100808354040283529160200191610a78565b820191906000526020600020905b815481529060010190602001808311610a5b57829003601f168201915b505050505090806002018054610a8d90611f8f565b80601f0160208091040260200160405190810160405280929190818152602001828054610ab990611f8f565b8015610b065780601f10610adb57610100808354040283529160200191610b06565b820191906000526020600020905b815481529060010190602001808311610ae957829003601f168201915b505050505090806003018054610b1b90611f8f565b80601f0160208091040260200160405190810160405280929190818152602001828054610b4790611f8f565b8015610b945780601f10610b6957610100808354040283529160200191610b94565b820191906000526020600020905b815481529060010190602001808311610b7757829003601f168201915b505050505090806004018054610ba990611f8f565b80601f0160208091040260200160405190810160405280929190818152602001828054610bd590611f8f565b8015610c225780601f10610bf757610100808354040283529160200191610c22565b820191906000526020600020905b815481529060010190602001808311610c0557829003601f168201915b50505050600583015460069093015491926001600160a01b031691905087565b6040805160a0810182528581526001600160a01b0385811660208084019182528385018781526060850187905260016080860181905260008b8152928390529590912084518155915194820180546001600160a01b031916959093169490941790915591519091906002820190610cb9908261203f565b5060608201516003820190610cce908261203f565b50608091909101516004909101805460ff191691151591909117905560405184907fe6bee2551c2935faf24dc7a3a103420a1b3f061c6c43868370231df5c7e610b990610d1e90869086906120ff565b60405180910390a250505050565b6001602081905260009182526040909120805491810154600282018054919291610d5590611f8f565b80601f0160208091040260200160405190810160405280929190818152602001828054610d8190611f8f565b8015610dce5780601f10610da357610100808354040283529160200191610dce565b820191906000526020600020905b815481529060010190602001808311610db157829003601f168201915b505050505090806003018054610de390611f8f565b80601f0160208091040260200160405190810160405280929190818152602001828054610e0f90611f8f565b8015610e5c5780601f10610e3157610100808354040283529160200191610e5c565b820191906000526020600020905b815481529060010190602001808311610e3f57829003601f168201915b5050505050908060040154905085565b600660205260009081526040902080546001820154600283015460038401546004850154600586018054959694956001600160a01b03948516959490931693919261047f90611f8f565b604080516020808201879052606086811b6001600160601b03199081168486015286821b1660548401524260688085018290528551808603909101815260888501808752815191850191909120610128860187528a82526001600160a01b03808b1660a88801818152828c1660c88a0181815260e88b018d8152610108909b0197885260008681526003808c52908d90209751885592516001880180549187166001600160a01b031992831617905590516002880180549190961691161790935597519784019790975592516004909201919091558551948552928401529282018490529186917f71c796a601a54507520d5d342eed6bd8dda11ca8b591e2f236acecf484319e77910161088d565b60076020526000908152604090208054600182018054919291610fe790611f8f565b80601f016020809104026020016040519081016040528092919081815260200182805461101390611f8f565b80156110605780601f1061103557610100808354040283529160200191611060565b820191906000526020600020905b81548152906001019060200180831161104357829003601f168201915b50505050509080600201805461107590611f8f565b80601f01602080910402602001604051908101604052809291908181526020018280546110a190611f8f565b80156110ee5780601f106110c3576101008083540402835291602001916110ee565b820191906000526020600020905b8154815290600101906020018083116110d157829003601f168201915b505050600384015460048501805494956001600160a01b0390921694919350915061111890611f8f565b80601f016020809104026020016040519081016040528092919081815260200182805461114490611f8f565b80156111915780601f1061116657610100808354040283529160200191611191565b820191906000526020600020905b81548152906001019060200180831161117457829003601f168201915b5050505050908060050154905086565b60086020526000908152604090208054600182018054919291610fe790611f8f565b60408051602081018790526001600160601b0319606085901b169181019190915242605482015260009060740160408051601f19818403018152828252805160209182012060c0840183528984528382018981528484018990526001600160a01b0388166060860152608085018790524260a08601526000828152600890935292909120835181559151909350600182019061125f908261203f565b5060408201516002820190611274908261203f565b5060608201516003820180546001600160a01b0319166001600160a01b03909216919091179055608082015160048201906112af908261203f565b5060a091909101516005909101556040516001600160a01b038416815286907f62370bd7ef088e7bdd74d5d3f60a7d83bd13c15fa2e01dcd870ac45dea4b9b78906020016109cd565b600a805490600061130883611fc9565b90915550506040805160e081018252868152602080820187815233838501908152606084018881526080850188815260a086018890524260c0870152600a5460009081526005909552959093208451815591516001830155516002820180546001600160a01b0319166001600160a01b03909216919091179055905160038201559151909190600482019061139d908261203f565b5060a082015160058201906113b2908261203f565b5060c09190910151600690910155600a54604080518781523360208201529081018590527fd37a3b7507cdcd9072406e5bc4fb33081b739712bd6ec42ab3ff461aeb5adfa39060600161088d565b604080516020810186905290810184905242606082015260009060800160408051601f19818403018152828252805160209182012060a08401835288845283820188815284840188815260608601889052426080870152600083815260019485905294909420855181559051928101929092559151919350906002820190611488908261203f565b506060820151600382019061149d908261203f565b5060808201518160040155905050847fdd159590f3be0b7f839b33e1a97004fda6d283a99cc6ab64e8a4393768628018858560405161088d92919061212b565b60408051610100810182528781526020808201888152828401889052606083018790526080830186905260a083018590523360c08401524260e084015260008a81526002909252929020815181559151909190600182019061153f908261203f565b5060408201516002820190611554908261203f565b5060608201516003820190611569908261203f565b506080820151600482019061157e908261203f565b5060a0820151600582015560c08201516006820180546001600160a01b0319166001600160a01b0390921691909117905560e09091015160079091015560405186907fc0c54fed07481d0998e1446b2c13759606bf4f26b78306307413ac4c4309aa82906109cd9088903390612144565b600b80549060006115ff83611fc9565b90915550506040805160e0810182528681526020808201878152338385019081526001600160a01b03888116606086019081526080860189815260a087018981524260c0890152600b546000908152600690975297909520865181559351600185015591516002840180546001600160a01b03199081169284169290921790559151600384018054909316911617905590516004820155915190919060058201906116aa908261203f565b5060c09190910151600690910155600b54604080518781523360208201526001600160a01b038616918101919091527f5ec5347eebcb0212fae553f2bcfe22982d4463ab17a60f50a80f9095e96032f69060600161088d565b60006020819052908152604090208054600182015460028301805492936001600160a01b039092169261173590611f8f565b80601f016020809104026020016040519081016040528092919081815260200182805461176190611f8f565b80156117ae5780601f10611783576101008083540402835291602001916117ae565b820191906000526020600020905b81548152906001019060200180831161179157829003601f168201915b5050505050908060030180546117c390611f8f565b80601f01602080910402602001604051908101604052809291908181526020018280546117ef90611f8f565b801561183c5780601f106118115761010080835404028352916020019161183c565b820191906000526020600020905b81548152906001019060200180831161181f57829003601f168201915b5050506004909301549192505060ff1685565b60006020828403121561186157600080fd5b5035919050565b6000815180845260005b8181101561188e57602081850181015186830182015201611872565b506000602082860101526020601f19601f83011685010191505092915050565b87815286602082015260018060a01b038616604082015284606082015260e0608082015260006118e160e0830186611868565b82810360a08401526118f38186611868565b9150508260c083015298975050505050505050565b60006101008a83528060208401526119228184018b611868565b90508281036040840152611936818a611868565b9050828103606084015261194a8189611868565b9050828103608084015261195e8188611868565b60a084019690965250506001600160a01b039290921660c083015260e09091015295945050505050565b634e487b7160e01b600052604160045260246000fd5b600082601f8301126119af57600080fd5b813567ffffffffffffffff808211156119ca576119ca611988565b604051601f8301601f19908116603f011681019082821181831017156119f2576119f2611988565b81604052838152866020858801011115611a0b57600080fd5b836020870160208301376000602085830101528094505050505092915050565b600080600080600060a08688031215611a4357600080fd5b85359450602086013567ffffffffffffffff80821115611a6257600080fd5b611a6e89838a0161199e565b95506040880135915080821115611a8457600080fd5b611a9089838a0161199e565b94506060880135915080821115611aa657600080fd5b611ab289838a0161199e565b93506080880135915080821115611ac857600080fd5b50611ad58882890161199e565b9150509295509295909350565b80356001600160a01b0381168114611af957600080fd5b919050565b600080600080600060a08688031215611b1657600080fd5b85359450602086013567ffffffffffffffff80821115611b3557600080fd5b611b4189838a0161199e565b95506040880135915080821115611b5757600080fd5b611b6389838a0161199e565b9450611ab260608901611ae2565b87815260e060208201526000611b8a60e0830189611868565b8281036040840152611b9c8189611868565b90508281036060840152611bb08188611868565b90508281036080840152611bc48187611868565b6001600160a01b039590951660a0840152505060c0015295945050505050565b60008060008060808587031215611bfa57600080fd5b84359350611c0a60208601611ae2565b9250604085013567ffffffffffffffff80821115611c2757600080fd5b611c338883890161199e565b93506060870135915080821115611c4957600080fd5b50611c568782880161199e565b91505092959194509250565b85815284602082015260a060408201526000611c8160a0830186611868565b8281036060840152611c938186611868565b9150508260808301529695505050505050565b878152602081018790526001600160a01b038681166040830152851660608201526080810184905260e060a08201819052600090611ce690830185611868565b90508260c083015298975050505050505050565b60008060008060808587031215611d1057600080fd5b84359350611d2060208601611ae2565b9250611d2e60408601611ae2565b9396929550929360600135925050565b86815260c060208201526000611d5760c0830188611868565b8281036040840152611d698188611868565b6001600160a01b038716606085015283810360808501529050611d8c8186611868565b9150508260a0830152979650505050505050565b600080600080600060a08688031215611db857600080fd5b853594506020860135935060408601359250606086013567ffffffffffffffff80821115611aa657600080fd5b60008060008060808587031215611dfb57600080fd5b8435935060208501359250604085013567ffffffffffffffff80821115611c2757600080fd5b60008060008060008060c08789031215611e3a57600080fd5b86359550602087013567ffffffffffffffff80821115611e5957600080fd5b611e658a838b0161199e565b96506040890135915080821115611e7b57600080fd5b611e878a838b0161199e565b95506060890135915080821115611e9d57600080fd5b611ea98a838b0161199e565b94506080890135915080821115611ebf57600080fd5b50611ecc89828a0161199e565b92505060a087013590509295509295509295565b600080600080600060a08688031215611ef857600080fd5b8535945060208601359350611f0f60408701611ae2565b925060608601359150608086013567ffffffffffffffff811115611f3257600080fd5b611ad58882890161199e565b8581526001600160a01b038516602082015260a060408201819052600090611f6890830186611868565b8281036060840152611f7a8186611868565b91505082151560808301529695505050505050565b600181811c90821680611fa357607f821691505b602082108103611fc357634e487b7160e01b600052602260045260246000fd5b50919050565b600060018201611fe957634e487b7160e01b600052601160045260246000fd5b5060010190565b601f82111561203a57600081815260208120601f850160051c810160208610156120175750805b601f850160051c820191505b8181101561203657828155600101612023565b5050505b505050565b815167ffffffffffffffff81111561205957612059611988565b61206d816120678454611f8f565b84611ff0565b602080601f8311600181146120a2576000841561208a5750858301515b600019600386901b1c1916600185901b178555612036565b600085815260208120601f198616915b828110156120d1578886015182559484019460019091019084016120b2565b50858210156120ef5787850151600019600388901b60f8161c191681555b5050505050600190811b01905550565b6001600160a01b038316815260406020820181905260009061212390830184611868565b949350505050565b8281526040602082015260006121236040830184611868565b6040815260006121576040830185611868565b905060018060a01b0383166020830152939250505056fea26469706673582212209d0792e5232f2456f5b88de6a44be742f433c547d00f5db14b078afd27da9e1064736f6c63430008130033",
  "immutableReferences": {},
  "source": "// SPDX-License-Identifier: MIT\r\npragma solidity ^0.8.19;\r\n\r\ncontract AidTrace {\r\n    struct NGO {\r\n        uint256 id;\r\n        address wallet;\r\n        string name;\r\n        string licenseNumber;\r\n        bool isRegistered;\r\n    }\r\n    \r\n    struct Project {\r\n        uint256 id;\r\n        string title;\r\n        string description;\r\n        string location;\r\n        string items;\r\n        uint256 fundingGoal;\r\n        address ngoWallet;\r\n        uint256 timestamp;\r\n    }\r\n    \r\n    struct Funding {\r\n        uint256 projectId;\r\n        address donorWallet;\r\n        address ngoWallet;\r\n        uint256 amount;\r\n        uint256 timestamp;\r\n    }\r\n    \r\n    struct SupplyQuoteRequest {\r\n        uint256 projectId;\r\n        string projectTitle;\r\n        string location;\r\n        string items;\r\n        string deliveryDate;\r\n        address ngoWallet;\r\n        uint256 timestamp;\r\n    }\r\n    \r\n    struct SupplierQuote {\r\n        uint256 quoteRequestId;\r\n        uint256 projectId;\r\n        address supplierAddress;\r\n        uint256 quotedAmount;\r\n        string deliveryTerms;\r\n        string signature;\r\n        uint256 timestamp;\r\n    }\r\n    \r\n    struct QuoteSelection {\r\n        uint256 quoteId;\r\n        uint256 projectId;\r\n        address ngoWallet;\r\n        address selectedSupplier;\r\n        uint256 selectedAmount;\r\n        string ngoSignature;\r\n        uint256 timestamp;\r\n    }\r\n    \r\n    struct SupplierConfirmation {\r\n        uint256 projectId;\r\n        string projectTitle;\r\n        string deliveryLocation;\r\n        address supplierAddress;\r\n        string signature;\r\n        uint256 timestamp;\r\n    }\r\n    \r\n    struct FieldOfficerConfirmation {\r\n        uint256 projectId;\r\n        string projectTitle;\r\n        string projectLocation;\r\n        address officerAddress;\r\n        string signature;\r\n        uint256 timestamp;\r\n    }\r\n    \r\n    struct FundingConfirmation {\r\n        uint256 projectId;\r\n        uint256 fundingId;\r\n        string ngoSignature;\r\n        string donorSignature;\r\n        uint256 timestamp;\r\n    }\r\n    \r\n    mapping(uint256 => NGO) public ngos;\r\n    mapping(bytes32 => FundingConfirmation) public fundingConfirmations;\r\n    mapping(uint256 => Project) public projects;\r\n    mapping(bytes32 => Funding) public fundings;\r\n    mapping(uint256 => SupplyQuoteRequest) public quoteRequests;\r\n    mapping(uint256 => SupplierQuote) public supplierQuotes;\r\n    mapping(uint256 => QuoteSelection) public quoteSelections;\r\n    mapping(bytes32 => SupplierConfirmation) public supplierConfirmations;\r\n    mapping(bytes32 => FieldOfficerConfirmation) public fieldOfficerConfirmations;\r\n    \r\n    uint256 public quoteRequestCounter;\r\n    uint256 public supplierQuoteCounter;\r\n    uint256 public quoteSelectionCounter;\r\n    \r\n    event NGOLinked(uint256 indexed ngoId, address wallet, string name);\r\n    event ProjectCreated(uint256 indexed projectId, string title, address ngoWallet);\r\n    event FundingRecorded(uint256 indexed projectId, address donor, address ngo, uint256 amount);\r\n    event FundingConfirmed(uint256 indexed projectId, uint256 fundingId, string ngoSignature);\r\n    event QuoteRequestCreated(uint256 indexed requestId, uint256 projectId, address ngo);\r\n    event SupplierQuoteSubmitted(uint256 indexed quoteId, uint256 requestId, address supplier, uint256 amount);\r\n    event QuoteSelected(uint256 indexed selectionId, uint256 quoteId, address ngo, address supplier);\r\n    event SupplierConfirmed(uint256 indexed projectId, address supplier);\r\n    event FieldOfficerConfirmed(uint256 indexed projectId, address officer);\r\n    \r\n    function linkNGOWallet(\r\n        uint256 _ngoId,\r\n        address _wallet,\r\n        string memory _name,\r\n        string memory _licenseNumber\r\n    ) public {\r\n        ngos[_ngoId] = NGO({\r\n            id: _ngoId,\r\n            wallet: _wallet,\r\n            name: _name,\r\n            licenseNumber: _licenseNumber,\r\n            isRegistered: true\r\n        });\r\n        \r\n        emit NGOLinked(_ngoId, _wallet, _name);\r\n    }\r\n    \r\n    function createProject(\r\n        uint256 _projectId,\r\n        string memory _title,\r\n        string memory _description,\r\n        string memory _location,\r\n        string memory _items,\r\n        uint256 _fundingGoal\r\n    ) public {\r\n        projects[_projectId] = Project({\r\n            id: _projectId,\r\n            title: _title,\r\n            description: _description,\r\n            location: _location,\r\n            items: _items,\r\n            fundingGoal: _fundingGoal,\r\n            ngoWallet: msg.sender,\r\n            timestamp: block.timestamp\r\n        });\r\n        \r\n        emit ProjectCreated(_projectId, _title, msg.sender);\r\n    }\r\n    \r\n    function recordFunding(\r\n        uint256 _projectId,\r\n        address _donorWallet,\r\n        address _ngoWallet,\r\n        uint256 _amount\r\n    ) public {\r\n        bytes32 fundingHash = keccak256(abi.encodePacked(_projectId, _donorWallet, _ngoWallet, block.timestamp));\r\n        \r\n        fundings[fundingHash] = Funding({\r\n            projectId: _projectId,\r\n            donorWallet: _donorWallet,\r\n            ngoWallet: _ngoWallet,\r\n            amount: _amount,\r\n            timestamp: block.timestamp\r\n        });\r\n        \r\n        emit FundingRecorded(_projectId, _donorWallet, _ngoWallet, _amount);\r\n    }\r\n    \r\n    function confirmFunding(\r\n        uint256 _projectId,\r\n        uint256 _fundingId,\r\n        string memory _ngoSignature,\r\n        string memory _donorSignature\r\n    ) public {\r\n        bytes32 confirmationHash = keccak256(abi.encodePacked(_projectId, _fundingId, block.timestamp));\r\n        \r\n        fundingConfirmations[confirmationHash] = FundingConfirmation({\r\n            projectId: _projectId,\r\n            fundingId: _fundingId,\r\n            ngoSignature: _ngoSignature,\r\n            donorSignature: _donorSignature,\r\n            timestamp: block.timestamp\r\n        });\r\n        \r\n        emit FundingConfirmed(_projectId, _fundingId, _ngoSignature);\r\n    }\r\n    \r\n    function createQuoteRequest(\r\n        uint256 _projectId,\r\n        string memory _projectTitle,\r\n        string memory _location,\r\n        string memory _items,\r\n        string memory _deliveryDate\r\n    ) public {\r\n        quoteRequestCounter++;\r\n        \r\n        quoteRequests[quoteRequestCounter] = SupplyQuoteRequest({\r\n            projectId: _projectId,\r\n            projectTitle: _projectTitle,\r\n            location: _location,\r\n            items: _items,\r\n            deliveryDate: _deliveryDate,\r\n            ngoWallet: msg.sender,\r\n            timestamp: block.timestamp\r\n        });\r\n        \r\n        emit QuoteRequestCreated(quoteRequestCounter, _projectId, msg.sender);\r\n    }\r\n    \r\n    function submitSupplierQuote(\r\n        uint256 _quoteRequestId,\r\n        uint256 _projectId,\r\n        uint256 _quotedAmount,\r\n        string memory _deliveryTerms,\r\n        string memory _signature\r\n    ) public {\r\n        supplierQuoteCounter++;\r\n        \r\n        supplierQuotes[supplierQuoteCounter] = SupplierQuote({\r\n            quoteRequestId: _quoteRequestId,\r\n            projectId: _projectId,\r\n            supplierAddress: msg.sender,\r\n            quotedAmount: _quotedAmount,\r\n            deliveryTerms: _deliveryTerms,\r\n            signature: _signature,\r\n            timestamp: block.timestamp\r\n        });\r\n        \r\n        emit SupplierQuoteSubmitted(supplierQuoteCounter, _quoteRequestId, msg.sender, _quotedAmount);\r\n    }\r\n    \r\n    function selectQuote(\r\n        uint256 _quoteId,\r\n        uint256 _projectId,\r\n        address _selectedSupplier,\r\n        uint256 _selectedAmount,\r\n        string memory _ngoSignature\r\n    ) public {\r\n        quoteSelectionCounter++;\r\n        \r\n        quoteSelections[quoteSelectionCounter] = QuoteSelection({\r\n            quoteId: _quoteId,\r\n            projectId: _projectId,\r\n            ngoWallet: msg.sender,\r\n            selectedSupplier: _selectedSupplier,\r\n            selectedAmount: _selectedAmount,\r\n            ngoSignature: _ngoSignature,\r\n            timestamp: block.timestamp\r\n        });\r\n        \r\n        emit QuoteSelected(quoteSelectionCounter, _quoteId, msg.sender, _selectedSupplier);\r\n    }\r\n    \r\n    function recordSupplierConfirmation(\r\n        uint256 _projectId,\r\n        string memory _projectTitle,\r\n        string memory _deliveryLocation,\r\n        address _supplierAddress,\r\n        string memory _signature\r\n    ) public {\r\n        bytes32 confirmationHash = keccak256(abi.encodePacked(_projectId, _supplierAddress, block.timestamp));\r\n        \r\n        supplierConfirmations[confirmationHash] = SupplierConfirmation({\r\n            projectId: _projectId,\r\n            projectTitle: _projectTitle,\r\n            deliveryLocation: _deliveryLocation,\r\n            supplierAddress: _supplierAddress,\r\n            signature: _signature,\r\n            timestamp: block.timestamp\r\n        });\r\n        \r\n        emit SupplierConfirmed(_projectId, _supplierAddress);\r\n    }\r\n    \r\n    function recordFieldOfficerConfirmation(\r\n        uint256 _projectId,\r\n        string memory _projectTitle,\r\n        string memory _projectLocation,\r\n        address _officerAddress,\r\n        string memory _signature\r\n    ) public {\r\n        bytes32 confirmationHash = keccak256(abi.encodePacked(_projectId, _officerAddress, block.timestamp));\r\n        \r\n        fieldOfficerConfirmations[confirmationHash] = FieldOfficerConfirmation({\r\n            projectId: _projectId,\r\n            projectTitle: _projectTitle,\r\n            projectLocation: _projectLocation,\r\n            officerAddress: _officerAddress,\r\n            signature: _signature,\r\n            timestamp: block.timestamp\r\n        });\r\n        \r\n        emit FieldOfficerConfirmed(_projectId, _officerAddress);\r\n    }\r\n}",
  "sourcePath": "c:\\dev\\aidtrace_project\\blockchain\\contracts\\AidTrace.sol",
  "compiler": {
    "name": "solc",
    "version": "0.8.19+commit.7dd6d404.Emscripten.clang"
  },
  "schemaVersion": "3.4.16",
  "updatedAt": "2026-03-04T19:51:20.818Z",
  "networkType": "ethereum",
  "devdoc": {
    "kind": "dev",
    "methods": {},
    "version": 1
  },
  "userdoc": {
    "kind": "user",
    "methods": {},
    "version": 1
  }
}